:020000040800F2
:10000000183300208D02000869280008EB1600084C
:1000100065280008CF080008CB3100080000000068
:10002000000000000000000000000000F5010008D2
:100030008D0900080000000039020008F92F0008AF
:10004000A7020008A7020008A7020008A7020008EC
:10005000A7020008A7020008A7020008A7020008DC
:10006000A7020008A7020008A7020008A7020008CC
:10007000A7020008A7020008A70200085909000803
:10008000A7020008A7020008A7020008A7020008AC
:10009000A7020008A7020008A7020008A70200089C
:1000A000A7020008A7020008A7020008A70200088C
:1000B000A7020008A7020008A9300008A70200084C
:1000C000A7020008A7020008A7020008A70200086C
:1000D000A7020008A7020008A7020008A70200085C
:1000E000A7020008A7020008A702000800000000FD
:1000F0000000000000000000000000000000000000
:100100000000000000000000A7020008A70200088D
:10011000A7020008A7020008C9300008A7020008CB
:10012000A7020008A7020008A7020008A70200080B
:10013000A70200080000000000000000A70200085D
:10014000A7020008A7020008A7020008A7020008EB
:1001500000F002F800F03FF80AA090E8000C82449A
:100160008344AAF10107DA4501D100F034F8AFF277
:10017000090EBAE80F0013F0010F18BFFB1A43F085
:10018000010318477074000090740000103A24BFF7
:1001900078C878C1FAD8520724BF30C830C144BFEC
:1001A00004680C607047000000230024002500262E
:1001B000103A28BF78C1FBD8520728BF30C148BFCA
:1001C0000B607047752900F02781002070471FB52C
:1001D0001FBD10B510BD00F040FB1146FFF7F7FF43
:1001E00003F08EF800F05EFB03B4FFF7F2FF03BCF0
:1001F00000F066FB224B19680868B0E8F00F80F346
:100200000988BFF36F8F4FF0000080F311884EF024
:100210000D0E70470000000006480068006880F37B
:10022000088862B661B6BFF34F8FBFF36F8F00DFF0
:1002300000BF00BF08ED00E0EFF30980BFF36F8F50
:100240000F4B1A6820E9F00F106008B54FF050000E
:1002500080F31188BFF34F8FBFF36F8F04F0C8FC9A
:100260004FF0000080F31188BDE808401968086865
:10027000B0E8F00F80F30988BFF36F8F704700BFBD
:1002800044000020EFF305807047000009488047D4
:1002900009480047FEE7FEE7FEE7FEE7FEE7FEE768
:1002A000FEE7FEE7FEE7FEE704480549054A064B80
:1002B00070470000A53000085101000818210020F7
:1002C00018330020182300201823002053EA020CC2
:1002D00000F069802DE9F04B4FF00006002B1FBFA6
:1002E000B3FA83F503FA05F424FA05F65E4012BF6B
:1002F0001643B2FA82F502FA05F4C5F120051EBFD5
:1003000022FA05FC44EA0C04203556EA044C4FEA74
:10031000144418BF641C4FF000084FF000099042CD
:1003200071EB030C39D3002919BFB1FA81F701FA37
:1003300007F6B0FA80F700FA07F6C7F120071EBFEC
:1003400020FA07FC46EA0C062037B6FBF4FCA7EBC4
:100350000507103F07F01F0BCBF120060CFA0BFB33
:100360002CFA06F644BFB3460026202FA4BF5E46F3
:100370004FF0000B5BEA060C08BF4FF0010B19EBC6
:100380000B09ABFB027C48EB0608C01B06FB02CC4A
:100390000BFB03CC71EB0C01C1E70B460246414657
:1003A0004846BDE8F08B13B54FF000004FF0000158
:1003B000AFF30080BDE81C40704700000FB41CB5CF
:1003C000074B06AA7B4469460090059800F0F3F9B4
:1003D0000020694600F002FA1CBC5DF814FB000026
:1003E000150400000FB41CB50C0007AA009001D042
:1003F0002044401E074B7B4469460190069800F05C
:10040000DAF9002C03D06946002000F0E7F91CBCA3
:100410005DF814FBED0300002DE9F04106460024D1
:1004200010687529314616A510D0AFF3008000285A
:1004300002DA404213A507E031688A0701D512A508
:1004400002E0490704D511A5012401E0AFF30080C3
:1004500000210A2206F1240709E0B0FBF2FCB0FB00
:10046000F2F302FB1C00303078541846491C002877
:10047000F3D123462A463046BDE8F04100F03DB9AD
:10048000000000002D0000002B00000020000000F4
:100490002DE9F05F894604464FF0000ADFF824B1E9
:1004A000FB44C0F820A02046E168884700287DD0A2
:1004B000252806D0D4E901219047206A401C2062FB
:1004C000F1E700255F462046E16888472028064678
:1004D00007DB312E05D2B81910F8200C08B10543FE
:1004E000F1E7A80701D525F00405C4F81CA00027F2
:1004F000C4F818A02A2E09D0304602F0AEFE38B358
:1005000004EB8708303EC8F8186019E059F8041B5E
:10051000204604EB87029161E1688847012F064677
:1005200018D1E069002820DA25F020051DE0D8F870
:10053000180000EB800006EB40003038C8F81800C7
:100540002046E1688847064602F087FE0028EED183
:10055000012F0AD02E2E08D12046E16888477F1C43
:100560000646022F45F02005C4DBA069002803DA07
:10057000404245F00105A061E80701D025F01005D3
:10058000A6B1A6F14100192802D8203645F400652D
:100590004A463146204625604D46FFF713FE60B1BE
:1005A000012807D0ED1D25F0070000E007E000F16D
:1005B000080978E705F1040975E730467AE7206A0B
:1005C000BDE8F09FEA700000032A40F2308010F08E
:1005D000030C00F0158011F8013BBCF1020F6244DE
:1005E00098BF11F801CB00F8013B38BF11F8013B6F
:1005F000A2F1040298BF00F801CB38BF00F8013B1C
:1006000011F0030300F0F780083AC0F0088051F8B9
:10061000043B083A51F804CBA0E80810F5E7121D96
:100620005CBF51F8043B40F8043BAFF30080D207B5
:1006300024BF11F8013B11F801CB48BF11F8012B81
:1006400024BF00F8013B00F801CB48BF00F8012BA4
:10065000704702F0FF0343EA032242EA024200F03D
:1006600002B84FF000020429C0F0128010F0030C11
:1006700000F01B80CCF1040CBCF1020F18BF00F895
:10068000012BA8BF20F8022BA1EB0C0100F00DB844
:100690005FEAC17C24BF00F8012B00F8012B48BFA2
:1006A00000F8012B70474FF0000200B51346944646
:1006B0009646203922BFA0E80C50A0E80C50B1F1BA
:1006C0002001BFF4F7AF090728BFA0E80C5048BFCE
:1006D0000CC05DF804EB890028BF40F8042B08BF6C
:1006E000704748BF20F8022B11F0804F18BF00F868
:1006F000012B70477047704770472DE9F0470D4652
:1007000099469246044600F124080168880604D5FB
:10071000E06921F01001216000E00120A84201DD24
:10072000471B00E00027A1697A1902EB0900081AAB
:10073000A0612078C00602D42046AFF300800026D6
:1007400008E0D4E901211AF806009047206A401C0D
:10075000761C20624E45F4DB2078C0060AD5204680
:10076000AFF3008006E0D4E9012130209047206AF1
:10077000401C2062381EA7F10107F4DC07E0D4E931
:10078000012118F805009047206A401C2062281EAD
:10079000A5F10105F3DC2046AFF3008020780006C8
:1007A00002D50220BDE8F0870120FBE701694A1C61
:1007B00002610878704700B58FB0CDE901310021A2
:1007C000059105497944CDE9031011466846FFF7C4
:1007D0005FFE0FB000BD0000E5FFFFFF0A6802F8F2
:1007E000010B0A607047D1E900239A4202D2531CE0
:1007F0000B601070704710B5203AC0F00B80B1E864
:100800001850203AA0E81850B1E81850A0E8185045
:10081000BFF4F5AF5FEA027C24BFB1E81850A0E84E
:10082000185044BF18C918C0BDE810405FEA827C68
:1008300024BF51F8043B40F8043B08BF7047D2077F
:1008400028BF31F8023B48BF11F8012B28BF20F820
:10085000023B48BF00F8012B7047754600F02CF8AA
:10086000AE4605006946534620F00700854618B09D
:1008700020B5FFF719FDBDE820404FF000064FF00E
:1008800000074FF000084FF0000B21F00701AC46C5
:10089000ACE8C009ACE8C009ACE8C009ACE8C009E4
:1008A0008D46704710B50446AFF300802046BDE882
:1008B0001040FFF799BC000000487047B4200020AA
:1008C00001491820ABBEFEE726000200704700BFBA
:1008D000FEE700000E494978012903D102210C4AA4
:1008E000517014E00A494978022907D10321084AC6
:1008F000517011468978491C917008E00449497883
:10090000032904D102498978491C014A9170704732
:100910001000002001460CE000BF00BF074A12682B
:10092000C2F38012002AF8D000BF044A506000BF12
:1009300000BF11F8010B0028EED1704700480040BD
:1009400010B500BF4FF480300249486000BF03F08B
:10095000AFFD10BD0000024010B500BF0A4800689E
:10096000C0F3404010B1FFF7EBFF0CE000BF0648BA
:100970000068C0F3C04030B100BF4FF4002002490E
:10098000486000BF00BF10BD00000240704772B653
:1009900000BFFEE7014800687047000034000020F7
:1009A0000348006803490978084401490860704712
:1009B000340000203C00002010B50848006840F0DA
:1009C000100006490860032000F0E2F80F2000F054
:1009D00007F800F05FF8002010BD00000020024082
:1009E0002DE9F04188B004460027B846002600BF34
:1009F0002348C06940F010002149C8610846C06919
:100A000000F01000019000BF00BF02A903A800F091
:100A100099F9069F1FB900F0BDF9054602E000F004
:100A2000B9F945001748B5FBF0F0A0F101081648E8
:100A30001649086040F2E7311448C160C0F80480EC
:100A4000002101618160816100F0FEFC064696B9DB
:100A50000E4800F02DFD06466EB9362000F04AF82B
:100A6000102C07D200222146362000F053F8084807
:100A7000046000E00126304608B0BDE8F0810000C7
:100A80000010024040420F0000100040780100209A
:100A90003800002008B500BF1448806940F001000C
:100AA000124988610846806900F00100009000BF8B
:100AB00000BF00BF0846C06940F08050C8610846CA
:100AC000C06900F08050009000BF00BF00220F21DD
:100AD000901E00F01FF800BF0549486820F0E06054
:100AE00040F00070486000BF08BD000000100240E8
:100AF0000000014001460846002809DB00F01F0302
:100B000001229A4043099B0003F1E023C3F800212E
:100B100000BF70472DE9F05F80460D46164600275E
:100B200002F062FB074639462A46334601F00700C9
:100B3000C0F1070ABAF1040F02D94FF0040A01E02C
:100B4000C0F1070AD14600F1040ABAF1070F02D238
:100B50004FF0000A01E0A0F1030AD4464FF0010A69
:100B60000AFA09FAAAF1010A0AEA020A0AFA0CFACE
:100B70004FF0010B0BFA0CFBABF1010B0BEA030B73
:100B80004AEA0B042146404602F04AFBBDE8F09FCA
:100B900000BF00F00702064B19684FF6FF0319402B
:100BA000044B0B4343EA0221014B196000BF70471D
:100BB0000CED00E00000FA0570B504460D460CB9D6
:100BC000012070BD5A48006800F00700A8420ED20C
:100BD0005748006820F00700284355490860084638
:100BE000006800F00700A84201D00120E9E7207862
:100BF00000F0020002281DD1207800F00400042833
:100C000005D14C48406840F4E0604A49486020788B
:100C100000F00800082805D14648406840F46050BC
:100C2000444948604348406820F0F000A168084308
:100C300040494860207800F0010078B360680128DE
:100C400006D13C48006800F4003090B90120B8E7B4
:100C50006068022806D13748006800F0007040B98B
:100C60000120AEE73348006800F0020008B9012017
:100C7000A7E73048406820F00300616808432D4929
:100C80004860FFF787FE064609E0FFF783FE801BFA
:100C900041F28831884202D9032092E707E02548D3
:100CA000406800F00C006168B0EB810FEDD1204886
:100CB000006800F00700A8420ED91D48006820F027
:100CC000070028431A4908600846006800F007003A
:100CD000A84201D0012074E7207800F00400042825
:100CE00007D11448406820F4E060E16808431149E6
:100CF0004860207800F00800082808D10D484068B6
:100D000020F46050216940EAC1000A49486000F0BF
:100D100051F808494968C1F30311074A515CC840BA
:100D20000649086006480068FFF75AFE002048E7B9
:100D30000020024000100240545C000840000020E7
:100D4000380000200F2202600D4A526802F00302B0
:100D500042600B4A526802F0F0028260084A526810
:100D600002F4E062C260064A526802F46052D2089D
:100D70000261044A126802F007020A60704700002C
:100D80000010024000200240014800687047000047
:100D90004000002000B5FFF7F7FF04494968C1F3A0
:100DA0000221034A515CC84000BD0000001002400F
:100DB000645C00082DE9F04F8BB03CA2D2E9013110
:100DC0001068D268CDE908310A9207903BA3D3E9B5
:100DD0000020D3E9021304AC0BC403924FF00009C6
:100DE000CB46CA460024002002900190009037486C
:100DF000D0F8049009F00C0000284FD0042802D04D
:100E000008284AD102E0324802904AE007A8C9F314
:100E10008341445C09F48030C0B32C48C06A00F0C0
:100E20000F0003A911F800B02848C06A00F4803010
:100E300008B32648C06AC0F30310401C0190234841
:100E4000C06AC0F30320801C00900198A0FB0B50E7
:100E500006461F490098A1FB00210023A2FB047C49
:100E600001FB04C102FB03112A4633463846FFF753
:100E70002DFA824603E016486043B0FBFBFA9DF86A
:100E80002900A04206D14FEA5A0A03E0FFE71148C1
:100E900004FB00FACDF808A003E000BF0C48029064
:100EA00000BF00BF02980BB0BDE8F08F0000040542
:100EB0000607080900000000000D000001020304FD
:100EC00005060708090A0B0C0D0E0F100010024052
:100ED00000127A0000093D00F8B504460CB9012063
:100EE000F8BD207800F00100002878D0FD48406867
:100EF00000F00C0004280CD0FA48406800F00C0008
:100F0000082811D1F748406800F48030B0F5803FE0
:100F10000AD1F448006800F4003000285FD0A068CF
:100F200000285CD10120DBE700BFA068B0F5803F5E
:100F300006D1EC48006840F48030EA49086028E0B7
:100F4000A06858B9E748006820F48030E549086097
:100F50000846006820F4802008601AE0A068B0F518
:100F6000A02F0BD1DF48006840F48020DD490860E5
:100F70000846006840F4803008600AE0D9480068FC
:100F800020F48030D74908600846006820F48020AB
:100F9000086000BFA06888B1FFF7FCFC054606E0CA
:100FA000FFF7F8FC401B642801D9032098E7CD48DF
:100FB000006800F400300028F2D010E0FFF7EAFCEF
:100FC000054606E0FFF7E6FC401B642801D9032034
:100FD00086E7C448006800F400300028F2D1207889
:100FE00000F00200022857D1BE48406800F00C0013
:100FF00050B1BC48406800F00C00082818D1B9482E
:10100000406800F4803098B9B648006800F00200EB
:1010100020B16069012801D0012061E7B148006872
:1010200020F0F800A16940EAC100AE49086033E051
:101030006069E8B10120AC490860FFF7ABFC0546E8
:1010400006E0FFF7A7FC401B022801D9032047E771
:10105000A448006800F002000028F2D0A14800680F
:1010600020F0F800A16940EAC1009E49086013E041
:1010700000209D490860FFF78DFC054606E0FFF75C
:1010800089FC401B022801D9032029E79548006804
:1010900000F002000028F2D1207800F008000828B3
:1010A0002DD1E069B8B1012090490860FFF772FCCA
:1010B000054606E0FFF76EFC401B022801D903201D
:1010C0000EE78848406A00F002000028F2D00120B4
:1010D00001F0CCFC13E0002084490860FFF75AFCC3
:1010E000054606E0FFF756FC401B022801D9032005
:1010F000F6E67C48406A00F002000028F2D1207831
:1011000000F00400042873D100277648C06900F07D
:10111000805070B900BF7348C06940F08050714979
:10112000C8610846C06900F08050009000BF00BF51
:1011300001276F48006800F48070B0B96C480068FF
:1011400040F480706A490860FFF724FC054606E019
:10115000FFF720FC401B642801D90320C0E6644847
:10116000006800F480700028F2D000BF20690128D8
:1011700006D15C48006A40F001005A49086227E045
:10118000206958B95748006A20F0010055490862A3
:101190000846006A20F00400086219E0206905286A
:1011A0000BD15048006A40F004004E4908620846DE
:1011B000006A40F0010008620AE04A48006A20F034
:1011C0000100484908620846006A20F004000862ED
:1011D00000BF2069A0B1FFF7DDFB054609E0FFF77E
:1011E000D9FB401B41F28831884202D9032077E6BF
:1011F00022E03C48006A00F002000028EFD012E034
:10120000FFF7C8FB054608E0FFF7C4FB401B41F2AF
:101210008831884201D9032062E63248006A00F032
:1012200002000028F0D1012F05D12E48C06920F01E
:1012300080502C49C86100BFE06AA0B329484068CB
:1012400000F48030B0F5803F0ED12648406800F0B1
:101250000C00082808D12348C06A00F48030B0F59B
:10126000803F01D101203BE6E06A022850D11D48B1
:10127000006800F0805040B11A48C06A00F0F001E8
:10128000606B814201D001202AE600201649886661
:10129000FFF780FB054607E0FFF77CFB401B642857
:1012A00002D903201CE64DE00E48006800F0006003
:1012B0000028F1D10B48C06A20F0F000616B0843B0
:1012C0000849C8620846C06A20F47060216B084370
:1012D0000449C862012004498866FFF75BFB0546A4
:1012E0000FE0000000100240000042428004424231
:1012F00000700040FFF74EFB401B642801D903201B
:10130000EEE54E48006800F000600028F2D019E0D9
:101310004A48C06A20F480304849C86200204849E1
:101320008866FFF737FB054606E0FFF733FB401BF7
:10133000642801D90320D3E54048006800F000602C
:101340000028F2D1206AE0B33C48406800F00C006D
:1013500008285ED0206A022846D100203849086655
:10136000FFF718FB054606E0FFF714FB401B0228B9
:1013700001D90320B4E53148006800F0007000286E
:10138000F2D1606AB0F5803F0DD12C48C06A616827
:1013900008432A49C8620846C06A20F00F00E16885
:1013A00008432649C862D4E909010843234949682A
:1013B00021F474110843214948600120204908663E
:1013C00000E038E0FFF7E6FA054606E0FFF7E2FA4C
:1013D000401B022801D9032082E51848006800F06C
:1013E00000700028F2D026E0002015490866FFF7BB
:1013F000D1FA054606E0FFF7CDFA401B022801D9D5
:1014000003206DE50D48006800F000700028F2D15F
:1014100011E0206A012800D162E50848466806F418
:101420008031606A814204D106F47011A06A814261
:1014300001D0012054E5002052E5000000100240D8
:10144000000042427047704710B504460CB90120B5
:1014500010BD94F83D0028B9002084F83C002046D7
:1014600000F025F8022084F83D00211D206801F0DD
:1014700033FE012084F8460000BF84F83E000121BD
:101480003F200155402001554120015500BF00BFBC
:10149000012084F842004320015544200155452095
:1014A000015500BF012084F83D000020D0E77047BF
:1014B000014691F83D00012801D00120704702202B
:1014C00081F83D000868C06840F001000B68D860F2
:1014D000144B086898420FD00868B0F1804F0BD0C9
:1014E000114B0868984207D0104B0868984203D007
:1014F0000F4B086898420CD10868806800F007021A
:10150000062A0CD00868006840F001000B681860DB
:1015100005E00868006840F001000B6818600020D2
:10152000CCE70000002C014000040040000800400F
:10153000000C0040704710B5044620680069C0F3F5
:101540004000D8B12068C068C0F34000B0B16FF06F
:10155000020021680861012020772068806900F07E
:10156000030018B12046FFF7E5FF05E0204600F034
:10157000ADF8204600F0ABF8002020772068006925
:10158000C0F38000D8B12068C068C0F38000B0B15B
:101590006FF00400216808610220207720688069CC
:1015A00000F4407018B12046FFF7C4FF05E0204664
:1015B00000F08CF8204600F08AF8002020772068A0
:1015C0000069C0F3C000D8B12068C068C0F3C00093
:1015D000B0B16FF00800216808610420207720680E
:1015E000C06900F0030018B12046FFF7A3FF05E033
:1015F000204600F06BF8204600F069F800202077C4
:1016000020680069C0F30010D8B12068C068C0F33A
:101610000010B0B16FF01000216808610820207739
:101620002068C06900F4407018B12046FFF782FFBF
:1016300005E0204600F04AF8204600F048F8002077
:1016400020772068006900F0010058B12068C06868
:1016500000F0010030B16FF0010021680861204600
:1016600000F036F820680069C0F3C01058B1206857
:10167000C068C0F3C01030B16FF08000216808610D
:101680002046FFF7DFFE20680069C0F3801058B1E4
:101690002068C068C0F3801030B16FF0400021684E
:1016A0000861204600F020F820680069C0F340106F
:1016B00058B12068C068C0F3401030B16FF020000E
:1016C000216808612046FFF7BEFE10BD70477047D5
:1016D00010B5044603492068884201D1FFF760F93C
:1016E00010BD000000100040704700BFFEE7000082
:1016F00008B50549C9690143034AD1611146C96961
:101700000140009100BF08BD0010024008B5054926
:1017100089690143034A9161114689690140009139
:1017200000BF08BD0010024008B5054989690143A2
:10173000034A9161114689690140009100BF08BDCB
:101740000010024010B54A1E044B9A5C825822F0E9
:1017500001034A1E014CA25C835010BD005C0008CE
:101760002DE9F04102460B461868C0F30F2595FAA3
:10177000A5F0B0FA80F480E00120A04028400028C5
:101780007AD0082C04D240F2011000FA04F106E0ED
:10179000A4F108004FF00116864046F080615868B9
:1017A00008280ED11869D66826EA11260F0A97FA7A
:1017B000A7F7B7FA87F700FA07F73E43D66000BFEE
:1017C00000BF586802EB116691FAA1FCBCFA8CFCD0
:1017D0004FEA8C084FF00F0C0CFA08FC376827EA28
:1017E0000C0791FAA1FCBCFA8CFC4FEA8C0C00FAB5
:1017F0000CFC47EA0C07376000BF5868012802D08C
:101800005868092838D1986802EB116691FAA1FC52
:10181000BCFA8CFC4FEA8C084FF0030C0CFA08FC65
:10182000376827EA0C0791FAA1FCBCFA8CFC4FEA56
:101830008C0C00FA0CFC47EA0C07376000BFD86834
:1018400002EB116691FAA1FCBCFA8CFC4FEA8C0801
:101850004FF0040C0CFA08FC376827EA0C0791FAE1
:10186000A1FCBCFA8CFC4FEA8C0C00FA0CFC47EA99
:101870000C07376000BF00BF641C25FA04F0002885
:101880007FF47AAFBDE8F08102469068C1F30F2380
:101890001840C1F30F23984201D101207047002066
:1018A000FCE7C1F30F2242617047C1F30F2242618E
:1018B0007047C1F30F2242617047C1F30F220261EA
:1018C0007047C1F30F22026170470000F0B5002499
:1018D00000252B4EB1FBF6F4466826F03F06264362
:1018E0004660284EB24201D8661C07E04FF4967657
:1018F00066434FF47A77B6FBF7F6761C076A27F053
:101900003F073E4306621F4EB24224D96BB902EB39
:101910004206B1FBF6F6C6F30B060EB9012615E03A
:1019200002EB4206B1FBF6F610E002EBC20606EB54
:101930000216B1FBF6F6C6F30B060EB9012605E05A
:1019400002EBC20606EB0216B1FBF6F646F40046C1
:1019500046EA03050CE05600B1FBF6F6C6F30B06AB
:10196000042E01D2042602E05600B1FBF6F63546FD
:10197000C6694CF6FF77BE432E43C661F0BD00003A
:1019800040420F00A08601007FB504460D4600BF0F
:10199000206820F00100206000BF684600F028F8B1
:1019A000D5E9012320460299FFF790FF6969E868AD
:1019B000A26848F2FF339A4340EA01031A43A26047
:1019C00000BF2868216821F01A010143216000BF8F
:1019D00000BF206840F00100206000BF2869216836
:1019E00021F480610143216000BF002004B070BD7C
:1019F00010B5044601F082F82060206801F04AF832
:101A00006060606801F056F8A060606801F064F8FA
:101A1000E06010BD30B50246012300BF1068C0F37E
:101A2000801038BBD1E9000420438C682043CC6887
:101A300020430C6920434C6920438C692043CC69C6
:101A400020430C6A204314684FF6BF75AC43204313
:101A50001060506820F004004C6940EA1440506067
:101A6000086AB0F5005F04D1486A84B2146100BF0F
:101A700000BF0023D06920F40060D061184630BD5B
:101A800001468868C0F3400070470173704710B585
:101A900003460A460021147B21469068014321F445
:101AA0008060546840EA040121F40060146840EA50
:101AB000040121F48050D48940EA040121F400504B
:101AC000146940EA040121F48040546940EA0401A9
:101AD00021F40040546940EA04015964002010BD1B
:101AE000026A8A4302627047026A0A4302627047CE
:101AF0006FF0010101617047016821F08001016010
:101B00007047016821F0010101607047816821F090
:101B1000800181607047016841F0010101607047F8
:101B2000C16841F00101C16070470000F0B5034693
:101B30001446012901D1002516E0042901D101250F
:101B400012E0102901D102250EE0402901D1032520
:101B50000AE0B1F5807F01D1042505E0B1F5806F81
:101B600001D1052500E006252846094D2E5C03F12C
:101B7000180572191568074E375C0326BE40B54339
:101B8000260C044F3F5CBE4035431560F0BD00009D
:101B9000315C00083F5C0008F0B50346144601299B
:101BA00001D1002516E0042901D1012512E01029F8
:101BB00001D102250EE0402901D103250AE0B1F54B
:101BC000807F01D1042505E0B1F5806F01D10525A5
:101BD00000E006252846094D2E5C03F11805721910
:101BE0001568074E375CF026BE40B543260C044FFF
:101BF0003F5CBE4035431560F0BD0000315C00081D
:101C00003F5C000870B5012901D1002416E00429C9
:101C100001D1012412E0102901D102240EE0402953
:101C200001D103240AE0B1F5807F01D1042405E04D
:101C3000B1F5806F01D1052400E006242346046A33
:101C4000054DEE5C0A25B540AC43034DED5C02FA50
:101C500005F52C43046270BD465C0008F0B50346F0
:101C60001446012901D1002516E0042901D10125DE
:101C700012E0102901D102250EE0402901D10325EF
:101C80000AE0B1F5807F01D1042505E0B1F5806F50
:101C900001D1052500E006252846094D2E5C03F1FB
:101CA000180572191568074E375C0C26BE40B543FF
:101CB000260C044F3F5CBE4035431560F0BD00006C
:101CC000315C00083F5C000810B5024613681F48ED
:101CD00082420BD0B2F1804F08D01D48824205D01D
:101CE0001C48824202D01C48824204D123F070007A
:101CF0004C6840EA0403154882420BD0B2F1804F91
:101D000008D01348824205D01248824202D01248BD
:101D1000824204D123F44070CC6840EA040313608B
:101D20008868D06200BF0888906200BF074882427E
:101D300003D10869106300BF00BF00BF506940F0C5
:101D40000100506100BF002010BD0000002C0140C8
:101D50000004004000080040000C004001460869F3
:101D600000F001007047000070B50246012901D162
:101D7000002416E0042901D1012412E0102901D128
:101D800002240EE0402901D103240AE0B1F5807F4E
:101D900001D1042405E0B1F5806F01D1052400E0F4
:101DA00006242346064CE55C02F118042819046851
:101DB000044DEE5C0425B540AC43046070BD0000EA
:101DC000315C0008385C000870B50246012901D179
:101DD000002416E0042901D1012412E0102901D1C8
:101DE00002240EE0402901D103240AE0B1F5807FEE
:101DF00001D1042405E0B1F5806F01D1052400E094
:101E000006242346064CE55C02F1180428190468F0
:101E1000044DEE5C0825B5402C43046070BD000005
:101E2000315C0008385C00082DE9F04106460C469C
:101E300015460127012C08D0102C0CD0B4F5807F5A
:101E40000FD0B4F5805F18D111E02946304600F07C
:101E50000DFD074612E02946304600F043FD0746D7
:101E60000CE02946304600F07FFD074606E0294693
:101E7000304600F0B5FD074600E000BF00BF384621
:101E8000BDE8F08181637047C1627047826844F2A7
:101E900007039A430A438260704741627047426871
:101EA00022F070020A434260704700002DE9FF41B2
:101EB00004460D4601270026204600F04FF8002872
:101EC0003DD1E9686868084329690843E16841F23F
:101ED0000C6291430843E060A868216921F44051F5
:101EE0000143216100BF6869616921F440710143C8
:101EF000616100BF6846FFF77BFD1348844201D152
:101F0000039E12E01148844201D1029E0DE0104868
:101F1000844201D1029E08E00E48844201D1029E13
:101F200003E00D48844200D1029E46B1286830B1DA
:101F30000027314620462A6800F015F800BF3846D1
:101F400004B0BDE8F08100000038014000440040CA
:101F500000480040004C0040005000400146C86866
:101F6000C0F34030704770B501EBC10303EB0113C0
:101F70009400B3FBF4F301EBC10404EB01149500EE
:101F8000B4FBF5F46425B4FBF5F404EBC40505EBF0
:101F90000414A3EB8403322404EB03136424B3FB83
:101FA000F4F303F0F00301EBC10404EB011495001A
:101FB000B4FBF5F46425B4FBF5F403EB041401EB76
:101FC000C10303EB01139500B3FBF5F301EBC1056E
:101FD00005EB01159600B5FBF6F56426B5FBF6F5A5
:101FE00005EBC50606EB0515A3EB8503322505EBCE
:101FF00003136425B3FBF5F303F00F0323449BB2F3
:10200000836070BD2DE9F84101202F4949690143E2
:102010002D4A5161114649690140009100BF00BF3E
:102020000F212A4B1B68C3F3022005240025034619
:10203000C3F1070CBCF1040F02D94FF0040C01E00E
:10204000C3F1070C674603F1040CBCF1070F02D281
:102050004FF0000C01E0A3F1030C66464FF0010CB9
:102060000CFA07FCACF1010C0CEA040C0CFA06FCAF
:102070004FF0010808FA06F8A8F1010808EA050877
:102080004CEA080200BF002904DB1007030E1048C9
:10209000435407E01007040E0C480C3001F00F0306
:1020A0001B1FC45400BF0F20002809DB00F01F02D3
:1020B000012191404209920002F1E022C2F8001190
:1020C00000BFBDE8F8810000001002400CED00E008
:1020D00000E400E010B5164B00221146154801F04F
:1020E0002DFB15490860154A0221084601F0EEF95A
:1020F00013490860134A0021134801F091FA13496B
:102100000860134A0021134801F08AFA1249086056
:10211000124A0021124801F083FA12490860124A5B
:102120000021124801F07CFA1149086010BD00003E
:10213000485B0008D508000814000020C45B0008B4
:1021400024000020DC5B0008ED2F00082C0000209C
:10215000585B0008E12F0008180000207C5B000895
:10216000552F00081C000020A05B0008252E000849
:102170002000002000B585B014216846FEF793FAD0
:102180002020FFF7C3FA1020FFF7C0FA0420FFF762
:10219000BDFA0820FFF7BAFA40F207712148FFF7AD
:1021A00084FB21492148FFF780FB21492148FFF7A3
:1021B0007CFB40F60F7000900420019069461B489C
:1021C000FFF7CEFA40F204400090042001906946E7
:1021D0001848FFF7C5FA40F20770009001200190FF
:1021E000022002900020039069460E48FFF7B8FADB
:1021F0000D480090012001900220029000200390E1
:1022000069460A48FFF7ACFA09480090012001909E
:10221000022002900020039069460648FFF7A0FACA
:1022200005B000BD000C0140030003040010014094
:102230008C008C040008014000B58DB0182107A85F
:10224000FEF731FA142102A8FEF72DFA08202D49D5
:10225000896901432B4A91611146896901400191C5
:1022600000BF00BF2848029009200390032004907B
:102270000420059002A92548FFF772FA00BF244800
:102280004068244908432249486000BF48011D496D
:10229000C96901431B4AD1611146C96901400191D5
:1022A00000BF00BF00BF1C48C06820F001001A49F1
:1022B000C86000BF00BF0846006820F0400008600A
:1022C00000BF00BF0846006820F08000086000BF23
:1022D0000020079011480890002009900A900815E6
:1022E0000B9000010C9007A90B48FFF74DFB002055
:1022F0000949C96821F0FE010143074AD16000BFC6
:102300000DB000BD0010024003000304000C0140AA
:10231000000001400200000700540040801A06003F
:1023200030B591B0282107A8FEF7BDF9142102A805
:10233000FEF7B9F94FF480406449C9690143634A23
:10234000D1611146C9690140019100BF00BF082059
:1023500011468969014391611146896901400191E2
:1023600000BF00BF5A480290092003900320049048
:102370000020059002A95748FFF7F2F956480521B9
:1023800010224B1E554CE35CC35844F21004A34387
:1023900013434C1E514D2C5D035100BF00224B1EB8
:1023A0002C46E35CC35823F4405313434C1E2C5D6E
:1023B000035100BF00BF4B1E2C46E35CC35823F003
:1023C000200313434C1E2C5D035100BF00BF4B1E66
:1023D0002C46E35CC35823F0400313434C1E2C5D92
:1023E000035100BF80224B1E2C46E35CC35823F0F0
:1023F000800313434C1E2C5D035100BF00224B1E73
:102400002C46E35CC35823F4407313434C1E2C5DED
:10241000035100BF00BF4B1E2C46E35CC35823F49E
:10242000406313434C1E2C5D035100BF00200790F6
:102430004FF482700890002009900A900B904FF49E
:1024400000700C9008200D9000200E900F900A2034
:10245000109007A92248FFF7DDFA05211E48FFF773
:1024600071F900BF4FF400301B49486000BF00BF46
:102470008000486000BF00BF1948406840F002007B
:102480001749486000BF144805214A1E2B469A5C34
:10249000825842F002034A1E2C46A25C835000BFC1
:1024A00000BF4A1E23469A5C825842F008034A1E27
:1024B000A25C835000BF00BF0948006840F04000A4
:1024C0000749086000BF11B030BD00000010024095
:1024D000A000A004000C014000000240005C0008C5
:1024E0000038004000B599B0142114A8FEF7DBF8BD
:1024F00020210CA8FEF7D7F8182106A8FEF7D3F87C
:10250000142101A8FEF7CFF84FF40060FFF70CF993
:102510000420FFF709F934480190092002900220B5
:1025200003900020049001A93048FFF719F94720D3
:10253000ADF85000002015906320169000201790F1
:10254000FF20189014A92A48FFF7BEFB2848FFF780
:10255000D3FA00212648FFF799FC01212448FFF710
:1025600033FC70200C9000200D900E9031200F90C5
:10257000002010901190129013900CAA01211C4879
:10258000FFF752FC01211A48FFF7EEFB40211848E3
:10259000FFF785FC00BF1648806840F080001449B2
:1025A000886000BF00200690079008908DF82400F6
:1025B000ADF8260048140A9000200B9006A90C489C
:1025C000FFF765FA0420FFF7AFF80A4801900920E9
:1025D0000290022003900020049001A90348FFF715
:1025E000BFF819B000BD000002000204000801405D
:1025F000002C01400100010400B58BB0142106A895
:10260000FEF751F8142101A8FEF74DF80220FFF75C
:102610006FF80420FFF788F84CF2C0000190082002
:1026200002900020059001A92748FFF799F80120A2
:102630002649896821F007010143244A916000BFBF
:10264000020401212148FFF771FA002201211F48ED
:10265000FFF704FB4FF4401201211C48FFF79CFADE
:10266000002201211948FFF7CDFA4FF480321021E2
:102670001648FFF75BFA002210211448FFF7EEFA24
:102680004FF4800210211148FFF786FA0022102132
:102690000E48FFF7B7FA0020ADF8180007904FF684
:1026A000FF7008900020099006A90848FFF70CFB6E
:1026B0000648FFF721FA00210448FFF7F0FB034822
:1026C000FFF724FA0BB000BD0008014000040040F1
:1026D00000B585B014216846FDF7E5FF0420FFF73B
:1026E00007F80F20ADF80000002001906320029051
:1026F0000020039069461F48FFF7E6FA1D48FFF7E0
:10270000FBF900201B49896821F070010143194A37
:10271000916000BF07211046FFF7B8FB00BF1548C6
:10272000C06820F040001349C86000BF00BF0846E1
:10273000C06820F48040C86000BF00210D48FFF74A
:10274000AEFB0C48FFF7E2F90A48FFF7D1F9094858
:10275000FFF7E6F901211E2000F04EFD1E2000F0DB
:1027600036FD00210348FFF798FB0248FFF7D3F935
:1027700005B000BD0008004000B58DB01C2106A8C2
:10278000FDF791FF142101A8FDF78DFF4FF4802084
:102790002D49C96901432C4AD1611146C9690140DB
:1027A000009100BF00BF102011468969014391616B
:1027B000114689690140009100BF00BF2348019084
:1027C00009200290032003900020049001A92048D2
:1027D000FEF7C6FF1F4801900420029001A91C4883
:1027E000FEF7BEFF00BF1C4840681C49084000F1CE
:1027F000E06010301849486000BF4FF4E1300690A7
:1028000000200790089009900C200A9000200B905F
:102810000C9006A91248FFF749FB00BF1048006959
:1028200020F490400E4908610846406920F02A00D3
:10283000486100BF00BF0846C06840F40050C8604F
:1028400000BF0DB000BD00000010024004000404F1
:10285000001001400800080400000140CFFFFFF80D
:102860000048004000BFFEE700BFFEE770B502462B
:10287000106A20F001001062136A5568946924F010
:10288000030424F070000E6840EA060423F00200FE
:102890000E6940EA060323F001004E6840EA060391
:1028A0000F48824213D123F008004E6940EA8603A4
:1028B00023F004008E6840EA860325F480708E6958
:1028C00040EA060525F40070CE6940EA46055560E9
:1028D0009461C868506300BF1362002070BD00009F
:1028E000002C01402DE9F04104460D46206A20F0FD
:1028F00010002062266AD4F80480A76927F4407784
:1029000027F4E040296840EA012726F020002969E1
:1029100040EA011626F01000696840EA01161148E5
:10292000844213D126F08000696940EA811626F0BE
:102930004000A96840EA811628F48060A96940EA4D
:10294000810828F40060E96940EAC108C4F80480FD
:10295000A7612046E968FFF795FA26620020BDE8E6
:10296000F0810000002C014070B50246106A20F48E
:1029700080701062136A5568D46924F0030424F04F
:1029800070000E6840EA060423F400700E6940EA05
:10299000062323F480704E6840EA06230F488242E3
:1029A00013D123F400604E6940EA862323F480604B
:1029B0008E6840EA862325F480508E6940EA061529
:1029C00025F40050CE6940EA46155560D461C868C8
:1029D000D06300BF1362002070BD0000002C0140D6
:1029E00070B50246106A20F480501062146A55686F
:1029F000D36923F4407323F4E0400E6840EA0623D1
:102A000024F400500E6940EA063424F480504E68E5
:102A100040EA06340748824204D125F480408E699A
:102A200040EA86155560D361C868106400BF14621F
:102A3000002070BD002C014010B50B48FFF758F87E
:102A40000948FFF75EF800BF0748406C20F40040DB
:102A50000549486400BF01210348FFF741F8002100
:102A60000148FFF71AFA10BD002C014008B50849CB
:102A70000968C9084FF47A72B1FBF2F14143009141
:102A800000BF00BF00994A1E00920029F9D108BD7D
:102A900040000020014600BF0448406800F0F000FC
:102AA0000009034A125C21FA02F07047001002404C
:102AB000545C0008014600BF0548406800F4E0602F
:102AC000044A02EB1020027821FA02F0704700005D
:102AD00000100240645C0008014600BF05484068E1
:102AE00000F46050044A02EBD020027821FA02F090
:102AF0007047000000100240645C000810B500241C
:102B000000BF0B48406800F00C0020B1042804D03E
:102B1000082808D103E0074C07E0064C05E000F068
:102B200023F8044601E0034C00BF00BF204610BD5F
:102B30000010024000127A0000BF0948C06A00F489
:102B40007060022101EB1020064948430449C96A1C
:102B500001F0F001012202EB1111B0FBF1F070471E
:102B60000010024000127A0010B50023002400BFBC
:102B7000224A526802F48030204AD26A02F480323B
:102B8000110140EA0102144634B1B4F5803F05D08A
:102B9000B4F5881F17D10BE0194B16E000BF17489A
:102BA000C06A00F00F00401C1649B1FBF0F30CE0C6
:102BB000FFF7C2FF01461148C06A00F00F00401C39
:102BC000B1FBF0F301E00E4B00BF00BF00BF0B48AC
:102BD000406800F47010B0F5501F08D000BF0748DF
:102BE000406800F47010800C801C584310BD03EB4B
:102BF000830000EBC3004008F8E70000001002402B
:102C000000093D0000127A0010B5002000F05AF8CB
:102C100010BD0000F0B503461446842B01DA2029CC
:102C200000DBF0BD2548007920B10CB9012000E09F
:102C300000200446012C1FD10846CD1701EB557525
:102C4000ED1005EB451503EB85051D4E755D0A4638
:102C5000CE1701EB5676F610A1EBC6070126BE4053
:102C60003543CE1701EB5676F61006EB461603EB0E
:102C70008606134FBD551EE0CD1701EB5575ED10BF
:102C800005EB451503EB85050D4E755D0A46CE1720
:102C900001EB5676F610A1EBC6070126BE40B54300
:102CA0000846CE1701EB5676F61006EB461603EBF8
:102CB0008606034FBD5500BFB3E70000D4000020D7
:102CC000941E002010B504460C48007958B1012C20
:102CD00001D1002000E0FF2002464FF404710848B3
:102CE000FDF7B7FC09E00CB9002000E0FF20024628
:102CF0004FF404710248FDF7ACFC10BDD400002075
:102D0000941E0020014A108051807047D40000209A
:102D100010B5044640F204410748FEF7CAFD04F12D
:102D2000B001C8B201F0CCFC002001F0C9FC1020B9
:102D300001F0C6FC10BD0000000C01402DE9F0437D
:102D400007460C4690462648008821780844842887
:102D500005DA2348408861780844202802DB0020F7
:102D6000BDE8F083002530E0A7F12000617800FB8A
:102D70000150616831F81090002622E009FA06F04F
:102D800000F4004058B1164A52882A4491B2144ABD
:102D90001288324490B24246FFF73CFF10E0B8F18F
:102DA000000F01D1012300E000231A460C4B5B8881
:102DB0002B4499B20A4B1B88334498B2FFF72AFF81
:102DC000761C2078B042D9D86D1C6078A842CBD848
:102DD0000348008821780844014908803846BFE745
:102DE000D400002070B504460D4616460AE020784F
:102DF00032462946FFF7A2FF2178884201D0207889
:102E000070BD641C20780028F1D12078F8E700001C
:102E100010B500244FF40471014801F05FFC10BDAF
:102E2000941E002008B50020009000BF9DF801000E
:102E300040B901F005FBC0B28DF8000010B10120CF
:102E40008DF801009DF80100012805D102208DF8C0
:102E50000100322000F090FA9DF80100022812D102
:102E60009DF8000001F0A2FA012803D100208DF89E
:102E7000010008E003208DF8010000208DF8020019
:102E8000642000F079FA9DF8010003283DD19DF8F7
:102E9000000001F08BFA01280AD100208DF8010012
:102EA0001423002269462448006800F06BFB2CE0E4
:102EB0009DF8020005281FDB9DF8000001F0E8FAEC
:102EC000C0B28DF800009DF800309DF802201BA1D3
:102ED0001F48FDF773FA1E48FDF71CFD142300225E
:102EE00069461548006800F04DFB04208DF801008C
:102EF000642000F041FA08E09DF80200401CC0B2D6
:102F00008DF80200642000F037FA9DF801000428D3
:102F10000ED19DF8000001F049FA012805D10020EA
:102F20008DF800008DF8010002E0642000F024FA22
:102F30000A2000F021FA79E7240000206175746FFF
:102F40007265706561743D25752C2025750D0A002C
:102F50004401002008B50020009000BF0A23002291
:102F600069461948006800F065FA48BB9DF80020E2
:102F700016A11A48FDF722FA1848FDF7CBFC9DF878
:102F80000000012806D002280CD0032806D004280F
:102F900010D10BE0012000F067F90CE0032000F0F5
:102FA00063F908E0022000F05FF904E0042000F07B
:102FB0005BF900E000BF00BF0020009000F09EFB26
:102FC0000A2000F0D9F9C9E7240000206B65795F79
:102FD000636F64653D25750D0A0000004401002003
:102FE00000BF4FF47A7000F0C7F9FAE700BF4FF462
:102FF0007A7000F0C1F9FAE710B500BF502080F3F5
:103000001188BFF34F8FBFF36F8F00BF02F0F2FA4A
:1030100018B14FF080500449086000BF002080F3D1
:10302000118800BF10BD000004ED00E000B593B0B2
:10303000382105A8FDF737FB14216846FDF733FB5F
:1030400001200590000407900020089001200A90BC
:103050000020069002200D90C1030E914FF4E01164
:103060000F910020109005A8FDF736FF08B1FDF77D
:103070008EFC0F20009002200190002002904FF45F
:10308000806003900020049002216846FDF794FDC3
:1030900008B1FDF77CFC01200149086713B000BDB1
:1030A000000042427047000010B50648FEF756FE89
:1030B000012806D1FFF7C0FC0248FEF719FD00F019
:1030C0004DF810BD0008004010B50248FEF733FA75
:1030D00010BD00007801002010B502681B4B98421B
:1030E0000BD0B0F1804F08D0194B984205D0194B46
:1030F000984202D0184B984203D122F070024B68DC
:103100001A43124B98420BD0B0F1804F08D0104BAD
:10311000984205D00F4B984202D00F4B984203D1F2
:1031200022F44072CB681A4322F080034C6943EAD0
:10313000040202608B68C3620B688362034B98428F
:1031400001D10B6903630123436110BD002C0140D1
:103150000004004000080040000C004010B50CA125
:103160000F48FDF72BF90E48FDF7D4FB0D490E482B
:10317000FEF797FB01200D4908700D488088002854
:1031800004DD0B488088401E0949888010BD00007E
:1031900066756C6C5F7475726E5F656E640D0A00A7
:1031A0004401002001000104001001400C00002037
:1031B0000400002070B50546284601F0CFF804460B
:1031C00014B1D4E90010884770BD00BFFEE70028A5
:1031D00009DB00F01F02012191404209920002F137
:1031E000E022C2F80011704702480068C0F30220D4
:1031F000704700000CED00E010B5002804DB0A0762
:10320000130E054A135406E00A07140E034A00F091
:103210000F031B1FD45410BD00E400E018ED00E0C4
:1032200010B5002804DB0A07130E054A135406E004
:103230000A07140E034A00F00F031B1FD45410BDDD
:1032400000E400E018ED00E0EFF311807047EFF3C9
:1032500005807047EFF31080704730380A2801D29C
:10326000012070470020704710B50446012100205E
:10327000FFF748FD234606A210210748FDF7B2F8E4
:10328000012206490448FFF7ADFDFFF7C1FD10BD5F
:1032900042544E3D25750000A4200020CC000020A3
:1032A00010B5044621460B48FEF7EEFD0948FEF72F
:1032B0001FFC00210748FEF7F0FD0648FEF72BFC37
:1032C00000BF0448FEF74AFD0028FAD00148FEF787
:1032D00018FC10BD0014004010B547F6FF710748F8
:1032E000FEF7DBFD01210548FEF7FEFB1021034838
:1032F000FEF7FAFB0148FEF70EFC10BD000400408B
:10330000FDF75AFBFFF792FEFEF734FFFEF77AFE59
:10331000FFF706F8FEF790FFFFF72EFAFFF76CF9BC
:10332000FFF7E0F8FFF7D4F901F0FCF901F050F9EC
:1033300000F008F800F03CF8FEF7CCFE00F058F87A
:1033400000BFFEE710B501210020FFF7DBFC06A25D
:1033500010210748FDF746F8012206490448FFF707
:1033600041FDFFF755FD10BD53454C45435400004A
:10337000A4200020CC00002070B50546FFF767FFB1
:1033800048B9FFF767FF30B908480068022805D13F
:10339000FFF75AFF10B16FF0050404E0002415B1E7
:1033A000284601F045FB204670BD00009400002037
:1033B00010B5FFF74CFF48B9FFF74CFF30B90B4889
:1033C0000068022805D1FFF73FFF10B16FF0050438
:1033D00009E00648006820B901200449086000247B
:1033E00001E04FF0FF34204610BD000094000020A3
:1033F00010B5FFF72CFF48B9FFF72CFF30B90C4888
:103400000068022805D1FFF71FFF10B16FF0050417
:103410000CE007480068012806D102200449086032
:1034200001F082FB002401E04FF0FF34204610BD84
:10343000940000202DE9F84307460D4691461C46AE
:103440003E464FF00008FFF702FF48B9FFF702FFC2
:1034500030B91C48006802281FD1FFF7F5FEE0B123
:103460000EB105B114B16FF0030828E00020009000
:103470006A462946304601F06DFF012802D06FF000
:1034800002081CE00098D0B14FF080500E4908604F
:10349000BFF34F8FBFF36F8F11E006B115B96FF017
:1034A00003080CE022462946304601F09FFE012821
:1034B00005D014B16FF0010801E06FF0020840463A
:1034C000BDE8F8839400002004ED00E02DE9F84306
:1034D00005460E4614464FF00009FFF7B8FE0028D7
:1034E0004BD1FFF7B7FE002847D1254800680228D6
:1034F00003D1FFF7A9FE00283FD1002D3DD0002EBB
:103500003BD04FF0FF37BCB1A06858B1E0685028FD
:1035100008D3206930B105FB06F06169814201D30F
:1035200001270AE0A06840B9E06830B9206920B9F5
:10353000606910B9002700E00027012F09D10020A1
:10354000009031462846A368226901F044FC814678
:1035500006E02FB900223146284601F00DFC8146D5
:10356000B9F1000F09D014B1D4F8008001E04FF098
:1035700000084146484601F01FFA4846BDE8F88376
:10358000940000202DE9F84307460D4691461C465D
:103590003E464FF00008FFF75AFE48B9FFF75AFEC3
:1035A00030B91D480068022820D1FFF74DFEE8B170
:1035B0000EB105B114B16FF003082AE000200090AD
:1035C00000236A462946304601F094FD012802D0C6
:1035D0006FF002081DE00098D8B14FF080500F49FD
:1035E0000860BFF34F8FBFF36F8F12E006B115B9BC
:1035F0006FF003080DE0002322462946304601F013
:10360000A5FC012805D014B16FF0010801E06FF0AE
:1036100002084046BDE8F8839400002004ED00E075
:103620002DE9F04786B08046894614460020049074
:10363000FFF70DFE00285DD1FFF70CFE002859D1E1
:103640002D480068022803D1FFF7FEFD002851D164
:10365000B8F1000F4ED080261825002005900DF1FE
:10366000140A471E44B3206808B1D4F800A0A0692A
:1036700000B1A5692DB1382D03D8207900F00100E3
:1036800018B1002006B0BDE8F087606908B1606934
:103690008608A06840B1E0685C2805D3206918B1AD
:1036A000606908B1012708E0A06830B9E06820B976
:1036B000206910B9002700E00027012F0CD12169F3
:1036C000A0684B463246CDE9005102905146404633
:1036D00001F01EFF04900DE067B904A8B2B24B469A
:1036E0005146CDE90050404601F0E0FE012801D0EE
:1036F000002004900498C5E79400002010B5FFF75F
:10370000A6FD48B9FFF7A6FD30B90A4800680228AF
:1037100005D1FFF799FD10B16FF0050408E0002412
:103720004FF0805004490860BFF34F8FBFF36F8F95
:10373000204610BD9400002004ED00E02DE9FE4F6E
:103740000646894692461C4600200290FFF77FFD00
:10375000002851D1FFF77EFD00284DD12848006890
:10376000022803D1FFF770FD002845D1002E43D079
:10377000082000F055FD0546002D3DD02E60C5F80F
:1037800004A0B9F1000F01D1002700E001274FF09C
:10379000FF384FF0000B94B1206808B1D4F800B0A6
:1037A000A06828B1E068302802D34FF0010808E093
:1037B000A06830B9E06820B94FF0000801E04FF090
:1037C0000008B8F1010F0BD10E49A0682B463A460C
:1037D000CDE900100121584602F0E9F802900BE013
:1037E000B8F1000F08D107482B463A460121009056
:1037F000584602F0C1F802900298BDE8FE8F000022
:1038000094000020B53100082DE9F04105460E4630
:103810001648076816480068001D00F089FF681CFC
:1038200038B936B112480168091D124800F0D6FFB8
:103830001AE07C190E4800684460BC4207D20C486C
:103840000168091D0C48006800F0AEFF0CE0084854
:103850000168091D0948006800F0A6FF08480068D3
:10386000844201D206480460BDE8F081580000207F
:1038700044000020B00600204C000020480000203A
:103880007400002010B5044600F0B4FF244800681E
:10389000401C234908602348006840B9214804605F
:1038A0000846006801280DD100F01EFA0AE01E4803
:1038B000006838B91B480068C06AE16A884201D8CC
:1038C0001848046019480068401C184908600846F8
:1038D000006860641649E06A0968884202D91449A0
:1038E000E06A0860E16A01EB8101124A02EB8100A3
:1038F000211D00F073FF00F0A7FF0B48006868B1BE
:1039000008480068C06AE16A884207D24FF08050D8
:1039100009490860BFF34F8FBFF36F8F10BD0000E0
:1039200054000020440000206000002070000020AF
:103930005C0000200002002004ED00E008B500F06B
:1039400059FF12480068E8B9114800F01DFF1148FE
:1039500000F01AFF0E48104908600E480F49086031
:1039600000200F4B0F4A102100900A2001F033FA7B
:10397000064908600846006820B10BA103480068AA
:1039800001F01AF800F060FF08BD00008800002078
:10399000C4060020D80600208000002084000020FB
:1039A000EC0600203C070020546D7251000000001E
:1039B00010B516E000F01EFF0C48C068C468201D5A
:1039C00000F0B6FE0A480068401E09490860094830
:1039D0000068401E0749086000F036FF204600F0EE
:1039E0005EF8044800680028E4D110BD9C06002061
:1039F000540000205000002070B504460D46206C95
:103A000070B1216CE0680844E0606168E068884259
:103A100001D32068E0602846226CE168FCF7D4FD01
:103A200070BD2DE9F04104460F4615464FF00008E1
:103A3000A66B206C40B9206860BB606801F07CFE1A
:103A400080460020606025E07DB93946226CA06880
:103A5000FCF7BAFD216CA0680844A060D4E901100D
:103A6000884217D32068A06014E03946226CE068D1
:103A7000FCF7AAFD216CE068401AE0602168E0686C
:103A8000884203D2216C6068401AE060022D01D1A7
:103A900006B1761E701CA0634046BDE8F08110B5EB
:103AA000044694F8590030B9206B00F0EBFE204634
:103AB00000F0E8FE1AE094F85900012803D12046EE
:103AC00000F0E0FE12E094F85900022801D1012034
:103AD00000E0002050B900BF502080F31188BFF3F0
:103AE0004F8FBFF36F8F00BF00BFFEE710BD000018
:103AF0000146084A126812680AB9012200E0002251
:103B00000A600A6822B9034A1268D268106800E0A5
:103B1000002070478000002030B54FF480531748D4
:103B200000F007042CB1C01D20F00700134C041B4B
:103B30001B1B0246124C22600024114D6C60D018F1
:103B4000083820F007000F4C206000240D4D2D6830
:103B50006C600C4D2D682C601146441A4C60094C69
:103B600024680C60084D4C682C60084D4C682C6033
:103B70004FF00044064D2C6030BD0000940E002034
:103B800098000020A0000020A8000020A400002031
:103B9000AC00002000BFFFF70BFF064800680128BB
:103BA000F9D94FF0805004490860BFF34F8FBFF33D
:103BB0006F8FF0E70002002004ED00E02DE9F041F6
:103BC00006460D4617469846069C0DB9246000E04F
:103BD0002760E66325640121204601F06BF984F833
:103BE0004C80BDE8F0812DE9F05F82460F4690469B
:103BF0009B460A9E0C9C4FEA8801A522206BFCF78D
:103C000028FDA8F10100216B01EB800929F00709CB
:103C100009F0070008B9012000E0002050B900BFFA
:103C2000502080F31188BFF34F8FBFF36F8F00BF19
:103C300000BFFEE7002507E0795D04F1340041553F
:103C4000785D00B902E06D1C102DF5D300BF002196
:103C500043200155382E00D33726E662E664002063
:103C60002065201D00F09DFD04F1180000F099FD75
:103C70002461C6F13800A06164620020606584F8A8
:103C800058005A465146484600F07EFB20600B988B
:103C900008B10B980460BDE8F09F2DE9F047064697
:103CA0000D4617469846DDE908940DB1012000E065
:103CB000002050B900BF502080F31188BFF34F8F10
:103CC000BFF36F8F00BF00BFFEE75CB1FFF736FEAA
:103CD0002660A561E761C4F82080C4F82490201D07
:103CE00000F05FFDBDE8F08710B5002407E004EBAD
:103CF00084010F4A02EB810000F046FD641C382C61
:103D0000F5D30C4800F040FD0B4800F03DFD0B489A
:103D100000F03AFD0A4800F037FD0A4800F034FD93
:103D200004480949086004480849086010BD0000BB
:103D30000002002060060020740600208806002093
:103D40009C060020B0060020480000204C00002007
:103D500010B50146164800E0006803688B42FBD3AB
:103D60000246436813448B4204D143684C682344A1
:103D7000436001460A464B6813440468A34211D1CC
:103D80000C4C03682468A34208D04B68046864683C
:103D900023444B6003681B680B6005E0054B1B6800
:103DA0000B6001E003680B60884200D0016010BD29
:103DB00098000020A00000202DE9F04104460D46A7
:103DC00016461F464FF0000865602461B5420CD8C6
:103DD000F01BA169884202D34FF0010811E0211DB8
:103DE0000948006800F0E0FC0BE0BE4204D2BD428E
:103DF00002D34FF0010804E0211D0448006800F0E0
:103E0000D3FC4046BDE8F081840000208000002003
:103E100070B5054600F0EEFCA86B08B9012400E07F
:103E2000002400F011FD204670BD70B5054600F07D
:103E3000E1FCA86BE96B884201D1012400E0002479
:103E400000F002FD204670BDF8B505460F46164845
:103E50000068C068C468201D00F06AFCE0690128A1
:103E60001DD1A06941192B463A462046FFF7A4FF11
:103E7000A8B1002003462A4601460090204601F0E2
:103E80000BFE064656B900BF502080F31188BFF3E1
:103E90004F8FBFF36F8F00BF00BFFEE700BF20460C
:103EA000616A8847F8BD000080000020F0B587B047
:103EB00082E00398002811DA04AE56B900BF502002
:103EC00080F31188BFF34F8FBFF36F8F00BF00BF28
:103ED000FEE7D6E90020B168904700BF03980028AC
:103EE0006ADB059C606908B9012000E0002010B978
:103EF000201D00F01DFC02A800F0C0F80546039844
:103F00000A2857D2DFE800F009050731334F0608C9
:103F1000323400BF00BF00BF00BF0498A2698118FF
:103F200003462A462046FFF747FFE8B12046616A6C
:103F30008847E069012817D1002000900498A16902
:103F4000421800231946204601F0A6FD074657B93E
:103F500000BF502080F31188BFF34F8FBFF36F8FE6
:103F600000BF00BFFEE700BF25E000BF23E000BFA9
:103F70000498A061A06908B1012000E0002050B9B8
:103F800000BF502080F31188BFF34F8FBFF36F8FB6
:103F900000BF00BFFEE7A06941192B462A46204614
:103FA000FFF70AFF07E094F82C0010B9204600F054
:103FB00069FC00E000BF00BF002203A904480068BC
:103FC00001F014F900287FF474AF07B0F0BD0000D1
:103FD00088000020F8B505460C4600F001FE684652
:103FE00000F04CF80646009820BB44B9B54206D80C
:103FF00001F040FC31462846FFF726FF1CE03CB1AB
:104000000E480068006808B9012000E0002004465E
:10401000A91B22460A48006800F0E4FC01F02AFCD3
:1040200050B94FF0805007490860BFF34F8FBFF37E
:104030006F8F01E001F01EFCF8BD0000840000203D
:104040008800002004ED00E00A490968096809B900
:10405000012100E0002121B14FF0FF31064A11603B
:1040600006E004490968C968C868034A41681160E4
:1040700070470000480000207400002070B504461E
:1040800001F0B2FA054607480068854204D200F004
:104090000BF80120206001E000202060014805604D
:1040A000284670BD900000202DE9F84332E02448F6
:1040B0000068C068056822480068C068C468201DA0
:1040C00000F036FB2046616A8847E069012821D16B
:1040D000A0694619AE4207D966602461211D1848BF
:1040E000006800F061FB15E0002003462A46014607
:1040F0000090204601F0D0FC074657B900BF502081
:1041000080F31188BFF34F8FBFF36F8F00BF00BFE5
:10411000FEE700BF0A480068006808B9012000E017
:1041200000200028C3D00648D0F800800548006869
:10413000034908600348C0F80080BDE8F883000028
:1041400080000020840000200E480068401C08B950
:10415000012000E0002050B900BF502080F31188FA
:10416000BFF34F8FBFF36F8F00BF00BFFEE700BFED
:10417000502080F31188BFF34F8FBFF36F8F00BFC4
:1041800000BFFEE7B000002008B500BF6846FFF79B
:10419000AFFC044620460099FFF71CFFFFF786FEA0
:1041A000F4E770B5044600F025FB94F9455010E0A3
:1041B000606A08B9012000E0002038B904F1240049
:1041C00001F00CFB18B100F06DFC00E003E0681E8C
:1041D00045B2002DECDC00BFFF2084F8450000F064
:1041E00033FB00F007FB94F9445010E0206908B954
:1041F000012000E0002048B904F1100001F0EEFABF
:1042000008B100F04FFC681E45B200E001E0002D4F
:10421000ECDC00BFFF2084F8440000F015FB70BD0B
:104220002DE9F04104464FF0000800F0D9FC464863
:10423000006808B9FFF770FC444800682040002877
:104240006BD1D4B1083404F00700B0B104F007001A
:10425000C0F10800044404F0070008B9012000E0A0
:10426000002050B900BF502080F31188BFF34F8F5A
:10427000BFF36F8F00BF00BFFEE7002C4DD0344866
:104280000068844249D8334E3046056801E02E4626
:104290002D686868A04202D228680028F7D12A4811
:1042A0000068854239D0306800F10808286830601D
:1042B0006868001B102819D92F1907F0070008B9E2
:1042C000012000E0002050B900BF502080F3118889
:1042D000BFF34F8FBFF36F8F00BF00BFFEE768686B
:1042E000001B78606C603846FFF732FD184968683B
:1042F0000968081A164908600846006816490968DE
:10430000884203D212480068134908600F49686860
:104310000968084368600020286001F0ABFA08F0E3
:10432000070008B9012000E0002050B900BF50206C
:1043300080F31188BFF34F8FBFF36F8F00BF00BFB3
:10434000FEE74046BDE8F081A0000020AC00002060
:10435000A400002098000020A800002070B50446AA
:10436000254654B900BF502080F31188BFF34F8F0A
:10437000BFF36F8F00BF00BFFEE700F03BFA2E6A6D
:1043800000F062FA304670BD001F4FF0807303608A
:10439000001F21F001030360001F034B036014386A
:1043A00002602038704700004941000870B504469B
:1043B0000025072C3BD2DFE804F03A2831161F0411
:1043C0000D0040F204411C48FDF75EFA012800D1BF
:1043D00001252DE040F204411748FDF755FA012868
:1043E00000D1012524E040F204411448FDF74CFAC5
:1043F000012800D101251BE040F204410F48FDF7E0
:1044000043FA012800D1012512E040F201110A48C7
:10441000FDF73AFA012800D1012509E040F2011127
:104420000548FDF731FA012800D1012500E000BF61
:1044300000BF284670BD0000001001400008014088
:1044400010B5002440F204410F48FDF71DFA08B9E9
:10445000032416E040F204410C48FDF715FA08B9B0
:1044600005240EE040F201110848FDF70DFA08B9E5
:10447000012406E040F201110448FDF705FA00B9F5
:104480000124204610BD000000080140001001403A
:10449000012804D0032804D0052806D103E0022017
:1044A00004E0042002E0062000E000BF00BF7047E7
:1044B0002DE9F04105213848FDF744F9364805213A
:1044C00084224B1E354CE35C03445B686FF30F039F
:1044D00013434C1E314D2C5D0444636000BF304DCE
:1044E0002D7805EB4515AD002D1F2E4EAA192E4D2A
:1044F00005F10C0305460526771EDFF8A0C01CF861
:104500000770EF5944F2100C07EA0C0400BF102C9E
:1045100009D14D1E214E755D0544EA604D1E755D45
:104520000544AB6008E04D1E1C4E755D0544AA6055
:104530004D1E755D0544EB6000BF194800780428E6
:104540001BDA17480078FEF7E3FB40F20221174818
:10455000FDF7B3F9104805214A1E104B9A5C8258AA
:1045600042F001034A1E0D4CA25C835000BF0C4870
:104570000078401C0A4908700BE0002008490870C8
:1045800005210548FDF7DEF840F204410748FDF734
:1045900094F9BDE8F081000000000240005C0008D2
:1045A00030000020941E002000380040000C014024
:1045B00010B5044600BF0548FDF762FA0028FAD09E
:1045C00021460248FDF761FA10BD000000380040A6
:1045D00010B540F201113848FDF76BF940F6B830DC
:1045E000FEF75EFE40F201113348FDF76AF940F62E
:1045F000B830FEF755FE40F204412F48FDF759F957
:10460000AE2000F05DF8812000F05AF8FF2000F0A5
:1046100057F8A62000F054F8A42000F051F820200C
:1046200000F04EF8022000F04BF8B02000F048F8FF
:10463000002000F045F8102000F042F8402000F083
:104640003FF8A12000F03CF8A82000F039F81F2026
:1046500000F036F8C82000F033F8D32000F030F82E
:10466000002000F02DF8DA2000F02AF8122000F0E7
:1046700027F8D52000F024F8F02000F021F8DB2006
:1046800000F01EF8202000F01BF8AF2000F018F812
:1046900041F28830FEF704FEFEF7B6FAFEF7B8FBEB
:1046A00000200649088048800120487140F20441FA
:1046B0000148FDF706F910BD000C0140D4000020B0
:1046C00010B5044640F20220010A034A516100BFBE
:1046D0002046FFF76DFF10BD000C014070B5044689
:1046E0000D46FFF7E5FE70BD00B585B014216846A4
:1046F000FBF7D9FF2020FCF7FBFF4720ADF80000B7
:1047000000200190FF200290002003906946044899
:10471000FDF7DAFA0248FDF7EFF905B000BD000039
:104720000014004010B5FEF7D7FDFFF7DDFF10BD08
:1047300001460A69D1E901309860D1E90103586066
:104740005068884201D18868506000200861106874
:10475000401E106010687047034B0360034B0B60F2
:104760008023136070470000DC0700203808002019
:10477000034B0360034B0B604FF48073136070476F
:10478000380A0020940A002000F1080141604FF02F
:10479000FF31816000F10801C16001610021016009
:1047A000704700210161704710B502460B685C1C20
:1047B0000CB9106907E002F1080000E040684468A5
:1047C00024689C42FAD944684C604C68A1608860B7
:1047D00041600A611468641C146010BD42684A603C
:1047E00093688B60936859609160086103685B1CF3
:1047F0000360704700BF502080F31188BFF34F8FD4
:10480000BFF36F8F00BF0E480068401C0C49086062
:1048100008460068012812D10A480068C0B208B9E9
:10482000012000E0002050B900BF502080F3118823
:10483000BFF34F8FBFF36F8F00BF00BFFEE770471E
:10484000B000002004ED00E00D48006850B900BF42
:10485000502080F31188BFF34F8FBFF36F8F00BFDD
:1048600000BFFEE706480068401E0549086008468C
:10487000006820B9002080F3118800BF00BF704796
:10488000B000002070B506463546002E3FD0083DEA
:104890002C461F4960680968084008B1012000E003
:1048A000002050B900BF502080F31188BFF34F8F14
:1048B000BFF36F8F00BF00BFFEE7206808B901207B
:1048C00000E0002050B900BF502080F31188BFF3F2
:1048D0004F8FBFF36F8F00BF00BFFEE70C496068CA
:1048E0000968084098B1206888B909496068096872
:1048F0008843606000F074F90649606809680844FC
:10490000044908602046FFF723FA00F0B3FF70BDAA
:10491000AC000020A400002000204FF0E02108613E
:104920008861064800684FF47A71B0FBF1F0401ED0
:104930004FF0E021486107200861704740000020E7
:1049400070B5FBF79FFC0446102C16D304F1E02051
:1049500090F8F05315480078854201DB012000E013
:10496000002050B900BF502080F31188BFF34F8F53
:10497000BFF36F8F00BF00BFFEE70D48006800F473
:10498000E0600C490968884201D8012000E000205D
:1049900050B900BF502080F31188BFF34F8FBFF391
:1049A0006F8F00BF00BFFEE770BD0000B4000020A5
:1049B0000CED00E0B8000020024600200BE0084BA0
:1049C00053F8303033B9064B43F8301003EBC003D3
:1049D0005A6002E0401C0828F1D300BF7047000075
:1049E000C00100202DE9F04105460E4617462C4631
:1049F000FFF700FF94F94400401C10B9002084F830
:104A0000440094F94500401C10B9002084F845008A
:104A1000FFF71AFFA06B28B93A46314604F124008B
:104A200000F062F82046FFF7BCFBBDE8F081000013
:104A300070B504460025D4B11248006808B90120B9
:104A400000E0002050B900BF502080F31188BFF370
:104A50004F8FBFF36F8F00BF00BFFEE700F0C0F8BD
:104A600000212046FEF7D0FE00F004FF05463DB9C8
:104A70004FF0805004490860BFF34F8FBFF36F8F32
:104A800070BD00007C00002004ED00E003490968CF
:104A90000160034909684160704700006C00002014
:104AA000580000200120014908607047680000207C
:104AB00070B504460D4654B900BF502080F31188EC
:104AC000BFF34F8FBFF36F8F00BF00BFFEE70548F6
:104AD000016818312046FFF767FE01212846FEF7DE
:104AE00093FE70BD4400002070B505460E46144686
:104AF00055B900BF502080F31188BFF34F8FBFF32B
:104B00006F8F00BF00BFFEE70648016818312846D6
:104B1000FFF764FE0CB14FF0FF3621463046FEF73A
:104B200073FE70BD4400002010B586B000200590D3
:104B3000049003AA04A905A8FFF70EFE0022DDE9F0
:104B400004101346CDE9002102901EA11F48039ACC
:104B500000F0DEFC1E4908600846006808B1012428
:104B600000E00024012C02D100F05AFF0446012C81
:104B700015D100BF502080F31188BFF34F8FBFF3D2
:104B80006F8F00BF4FF0FF301249086001201249BB
:104B9000086000201149086000F072F810E0601C05
:104BA00008B1012000E0002050B900BF502080F380
:104BB0001188BFF34F8FBFF36F8F00BF00BFFEE7B9
:104BC00006B010BD49444C4500000000953B00086C
:104BD00078000020740000206000002058000020B1
:104BE00002480068401C0149086070477C000020B2
:104BF0001E48006818B101201D49086034E00020FB
:104C00001B4908601B4801680CE051B900BF5020E7
:104C100080F31188BFF34F8FBFF36F8F00BF00BFCA
:104C2000FEE7491E01EB8100134A52F8200008B943
:104C3000012000E000200028E7D101EB81020E4BAB
:104C400003EB820042685268426000F10802436848
:104C5000934202D14268526842604268D268074B70
:104C60001A600448016000BF704700007C0000200B
:104C7000680000205C0000200002002044000020AA
:104C80001CB53849084600780190FF200A4610708C
:104C90000846007800909DF8000000F0F0009DF8B4
:104CA0000020904201D1012000E0002050B900BF57
:104CB000502080F31188BFF34F8FBFF36F8F00BF79
:104CC00000BFFEE79DF8000000F05000264A10707B
:104CD0000720264A106009E024480068401E234A45
:104CE00010609DF800004006000E00909DF8000046
:104CF00000F080008028EFD01C480068C0F1070059
:104D0000042801D1012000E0002050B900BF50204C
:104D100080F31188BFF34F8FBFF36F8F00BF00BFC9
:104D2000FEE7124800680002104A10601046008832
:104D300000F4E06010600B4A019810700C480068A5
:104D400040F470000A4908600846006840F070406E
:104D50000860FFF7E1FD002006490860FBF75CFAF8
:104D600000201CBD00E400E0B4000020B8000020DA
:104D700020ED00E0B00000202DE9F84305460E4686
:104D800090460DB1012000E0002050B900BF502036
:104D900080F31188BFF34F8FBFF36F8F00BF00BF49
:104DA000FEE70EB9002701E005FB06F707F150000A
:104DB000FFF736FA04465CB104F15009002084F88C
:104DC000460043464A46314628460094FEF7F6FE22
:104DD0002046BDE8F8832DE9F84380460E46174685
:104DE0001D46DDF82090B8F1000F01D0012000E051
:104DF000002050B900BF502080F31188BFF34F8FBF
:104E0000BFF36F8F00BF00BFFEE70DB1012000E0D0
:104E1000002050B900BF502080F31188BFF34F8F9E
:104E2000BFF36F8F00BF00BFFEE707B10EB10120D7
:104E300000E0002050B900BF502080F31188BFF37C
:104E40004F8FBFF36F8F00BF00BFFEE707B90EB9EA
:104E5000012000E0002050B900BF502080F31188ED
:104E6000BFF34F8FBFF36F8F00BF00BFFEE750202F
:104E700000900098502801D1012000E0002050B996
:104E800000BF502080F31188BFF34F8FBFF36F8FA7
:104E900000BF00BFFEE72C464CB1012084F846005D
:104EA0004B463A46314640460094FEF787FE204680
:104EB000BDE8F88370B505460E462C4654B900BFD0
:104EC000502080F31188BFF34F8FBFF36F8F00BF67
:104ED00000BFFEE7FFF78EFCD4E90F12206801FB4C
:104EE000020060600020A0632068A060E06B401EAC
:104EF000226C216800FB0210E060FF2084F844006F
:104F000084F845009EB9206908B9012000E000201E
:104F1000A8B904F1100000F061FC80B14FF080509E
:104F200009490860BFF34F8FBFF36F8F07E004F1AB
:104F30001000FFF729FC04F12400FFF725FCFFF720
:104F400083FC012070BD000004ED00E02DE9FF436B
:104F500083B0064688461D464FF00009344654B9D2
:104F600000BF502080F31188BFF34F8FBFF36F8FC6
:104F700000BF00BFFEE7B8F1000F01D1206C08B9F7
:104F8000012000E0002050B900BF502080F31188BC
:104F9000BFF34F8FBFF36F8F00BF00BFFEE7022D3F
:104FA00002D1E06B012801D1012000E0002050B9BE
:104FB00000BF502080F31188BFF34F8FBFF36F8F76
:104FC00000BF00BFFEE700F0FFFA08B9059808B976
:104FD000012000E0002050B900BF502080F311886C
:104FE000BFF34F8FBFF36F8F00BF00BFFEE700BF5F
:104FF000FFF700FCA06BE16B884201D3022D28D1A2
:105000002A4641462046FEF70CFD0746606A08B96D
:10501000012000E0002068B904F1240000F0DEFB6C
:1050200088B14FF0805032490860BFF34F8FBFF313
:105030006F8F08E03FB14FF080502D490860BFF3FB
:105040004F8FBFF36F8FFFF7FFFB012007B0BDE865
:10505000F083059818B9FFF7F7FB0020F6E7B9F1E0
:10506000000F04D101A8FFF711FD4FF00109FFF770
:10507000EBFBFFF7B5FDFFF7BDFB94F94400401CC7
:1050800010B9002084F8440094F94500401C10B980
:10509000002084F84500FFF7D7FB05A901A800F020
:1050A000BFF9F0B92046FEF7C0FEA0B104F1100030
:1050B0000599FFF7FDFC2046FFF773F800F0DAFBD7
:1050C000002895D14FF0805009490860BFF34F8FF9
:1050D000BFF36F8F8CE72046FFF763F800F0CAFB41
:1050E00086E72046FFF75DF800F0C4FB0020ADE73F
:1050F00004ED00E02DE9F05F07468A4690461E4623
:105100003C4654B900BF502080F31188BFF34F8F45
:10511000BFF36F8F00BF00BFFEE7BAF1000F01D1F0
:10512000206C08B9012000E0002050B900BF5020D9
:1051300080F31188BFF34F8FBFF36F8F00BF00BFA5
:10514000FEE7022E02D1E06B012801D1012000E030
:10515000002050B900BF502080F31188BFF34F8F5B
:10516000BFF36F8F00BF00BFFEE7FFF7E9FB00BF93
:105170005021EFF3118081F31188BFF34F8FBFF3FC
:105180006F8F00BF0546A06BE16B884201D3022EF2
:1051900023D194F945B0324651462046FEF741FCF2
:1051A0000BF1010088B9606A08B9012000E0002015
:1051B00080B904F1240000F011FB58B1B8F1000FE0
:1051C00008D00120C8F8000004E00BF1010040B253
:1051D00084F845004FF0010901E04FF0000900BFDD
:1051E00085F3118800BF4846BDE8F09F2DE9F741DF
:1051F00083B005460E464FF000082C4654B900BF58
:10520000502080F31188BFF34F8FBFF36F8F00BF23
:1052100000BFFEE70EB9206C08B9012000E00020B5
:1052200050B900BF502080F31188BFF34F8FBFF3F8
:105230006F8F00BF00BFFEE700F0C6F908B9059800
:1052400008B9012000E0002050B900BF502080F3D1
:105250001188BFF34F8FBFF36F8F00BF00BFFEE712
:1052600000BFFFF7C7FAA76BF7B131462046FEF73C
:10527000C3FB781EA063206908B9012000E000206C
:1052800060B904F1100000F0A9FA38B14FF0805075
:105290002F490860BFF34F8FBFF36F8FFFF7D4FA2A
:1052A000012006B0BDE8F081059818B9FFF7CCFAE7
:1052B0000020F6E7B8F1000F04D101A8FFF7E6FBE4
:1052C0004FF00108FFF7C0FAFFF78AFCFFF792FAE8
:1052D00094F94400401C10B9002084F8440094F96B
:1052E0004500401C10B9002084F84500FFF7ACFAD7
:1052F00005A901A800F094F8F0B92046FEF788FD52
:10530000A0B104F124000599FFF7D2FB2046FEF777
:1053100048FF00F0AFFA0028A3D14FF080500C49AD
:105320000860BFF34F8FBFF36F8F9AE72046FEF7F9
:1053300038FF00F09FFA94E72046FEF732FF00F0B6
:1053400099FA2046FEF764FD00288AD00020A8E7DD
:1053500004ED00E02DE9F05F064689461746344625
:1053600054B900BF502080F31188BFF34F8FBFF3B3
:105370006F8F00BF00BFFEE7B9F1000F01D1206CB5
:1053800008B9012000E0002050B900BF502080F390
:105390001188BFF34F8FBFF36F8F00BF00BFFEE7D1
:1053A000FFF7CEFA00BF5021EFF3118081F311888F
:1053B000BFF34F8FBFF36F8F00BF0546D4F838A0FF
:1053C000BAF1000F22D094F944B049462046FEF7C6
:1053D00013FBAAF10100A0630BF1010070B9206971
:1053E00008B9012000E0002068B904F1100000F0C5
:1053F000F5F940B13FB10120386004E00BF1010044
:1054000040B284F844004FF0010801E04FF000087A
:1054100000BF85F3118800BF4046BDE8F09F000043
:1054200070B505460C4655B900BF502080F3118871
:10543000BFF34F8FBFF36F8F00BF00BFFEE754B9BC
:1054400000BF502080F31188BFF34F8FBFF36F8FE1
:1054500000BF00BFFEE7FFF7CDF912480268686899
:10546000131A2068401C08B9002617E00E49286866
:105470000968884204D06868904201D801260DE08E
:105480002068984207D92068C01A20602846FFF794
:10549000FDFA002602E0002020600126FFF7D4F983
:1054A000304670BD580000206C0000202DE9FF4FF1
:1054B00085B0804689461746DDE912ABB800FEF795
:1054C000AFFE064656B15C20FEF7AAFE04460CB1BC
:1054D000266304E03046FFF7D5F900E000248CB1E4
:1054E000002084F85900CDE900ABCDE902403A46EE
:1054F00049464046089BFEF776FB2046FEF7C2F978
:10550000012501E04FF0FF35284609B0BDE8F08FD6
:105510002DE9F04F85B00746884691469A46DDE969
:105520000EB6109C0EB1012000E0002050B900BF63
:10553000502080F31188BFF34F8FBFF36F8F00BFF0
:1055400000BFFEE70CB1012000E0002050B900BF11
:10555000502080F31188BFF34F8FBFF36F8F00BFD0
:1055600000BFFEE75C20039003985C2801D1012076
:1055700000E0002050B900BF502080F31188BFF335
:105580004F8FBFF36F8F00BF00BFFEE7B4B1AEB166
:1055900025462C462E63022085F85900002004A9D8
:1055A00053464A46CDE900B1CDE90250414638465E
:1055B000FEF719FB2846FEF765F901E0002004908C
:1055C000049805B0BDE8F08F0549096809B90120C4
:1055D00005E00449096809B9022000E0002070478D
:1055E000600000207C00002001490868704700002E
:1055F000580000202DE9F0414FF0000843480068B2
:10560000002876D142480068451C4148056015BB1A
:1056100040480068006808B9012000E0002050B947
:1056200000BF502080F31188BFF34F8FBFF36F8FFF
:1056300000BF00BFFEE737480768374800683549B4
:1056400008603548076035480068401C33490860E9
:10565000FEF7FAFC00BF3248006885423BD300BF2A
:105660002C480068006808B9012000E0002020B143
:105670004FF0FF302A4908602CE026480068C068D7
:10568000C4686668B54202D22548066022E0201D43
:10569000FFF74EF8A06A18B104F11800FFF748F8B8
:1056A0002049E06A0968884202D91E49E06A086018
:1056B000E16A01EB81011C4A02EB8100211DFFF729
:1056C0008DF81A49E06A0968C96A8842C8D34FF060
:1056D0000108C5E700BF15480068C06A00EB8000FC
:1056E000114951F82000012801D94FF0010805E0C7
:1056F000FFE70F480068401C0D4908600D4800682E
:1057000008B14FF001084046BDE8F0817C00002060
:1057100058000020480000204C0000206C000020B1
:10572000740000205C0000200002002044000020E3
:10573000640000206800002070B505462C46002655
:10574000002D43D022480068844201D1012000E0AE
:10575000002050B900BF502080F31188BFF34F8F55
:10576000BFF36F8F00BF00BFFEE7206D50B900BFD1
:10577000502080F31188BFF34F8FBFF36F8F00BFAE
:1057800000BFFEE7206D401E2065E16CE06A8842A4
:105790001CD0206DD0B9201DFEF7CAFFE06CE0627E
:1057A000E06AC0F13800A0610A49E06A09688842ED
:1057B00002D90849E06A0860E16A01EB8101064A02
:1057C00002EB8100211DFFF709F80126304670BD6C
:1057D000440000205C0000200002002070B5064656
:1057E000F068C46854B900BF502080F31188BFF33B
:1057F0004F8FBFF36F8F00BF00BFFEE704F11800AB
:10580000FEF796FF15480068A0B9201DFEF790FF2F
:105810001349E06A0968884202D91149E06A0860C0
:10582000E16A01EB81010F4A02EB8100211DFEF7C5
:10583000D5FF04E004F118010B48FEF7CFFF0B4938
:10584000E06A0968C96A884204D90125012008492B
:10585000086000E00025284670BD00007C000020A4
:105860005C00002000020020880600204400002088
:105870006800002070B5002400263648006850B942
:1058800000BF502080F31188BFF34F8FBFF36F8F9D
:1058900000BF00BFFEE7FEF7ADFF2E480068401EC8
:1058A0002C4908600846006800284ED12A48006844
:1058B00000284AD023E02948C068C46804F11800D1
:1058C000FEF736FF201DFEF733FF2549E06A096821
:1058D000884202D92249E06A0860E16A01EB81014D
:1058E000204A02EB8100211DFEF778FF1E49E06A85
:1058F0000968C96A884202D301201C490860174818
:10590000006808B9012000E000200028D3D00CB1C5
:10591000FEF79AFB1648056865B100BFFFF76AFEFF
:1059200010B10120114908606D1E002DF6D1002034
:105930000F4908600D48006838B1012630070D494D
:105940000860BFF34F8FBFF36F8FFEF77DFF3046C8
:1059500070BD00007C00002054000020880600205C
:105960005C000020000200204400002068000020AD
:105970006400002004ED00E02DE9FC4705460E46DA
:1059800017469846DDF828903020FEF749FC04467B
:1059900054B143463A4631462846CDE90094FEF7D5
:1059A0007CF9002084F82C002046BDE8FC872DE916
:1059B000FC4706460F4690469946DDE90AA5302089
:1059C00001900198302801D1012000E0002050B959
:1059D00000BF502080F31188BFF34F8FBFF36F8F4C
:1059E00000BF00BFFEE755B900BF502080F311880B
:1059F000BFF34F8FBFF36F8F00BF00BFFEE72C4692
:105A000054B14B46424639463046CDE900A4FEF734
:105A100044F9012084F82C002046BDE8FC870000F2
:105A200010B586B00024FDF789FF16480068D0B194
:105A300000200590049003AA04A905A8FEF798FE8B
:105A40000322DDE904100023CDE9002102900EA11C
:105A50000F48039AFFF75CFD0E490860084600688E
:105A600000B1012400BF54B900BF502080F3118859
:105A7000BFF34F8FBFF36F8F00BF00BFFEE720461D
:105A800006B010BD88000020546D7220537663006C
:105A9000894100088C0000202DE9FF4704460D468F
:105AA00016461F46DDF830804FF0000954B900BF9C
:105AB000502080F31188BFF34F8FBFF36F8F00BF6B
:105AC00000BFFEE71448006810B3009501960294E9
:105AD000062D15DAFFF778FD022808D1002342468B
